:020000040000FA
:020000000528D1
:040002000034003492
:080008009B280030A00000302D
:10001000A1000030A2000030A70083160313E030D7
:1000200086008316031300308700831203138B1797
:100030008B1501131E2026202E201A28831203134D
:1000400007138712200887008717080083120313FD
:1000500087138712210887000717080083120313EC
:100060008713071322088700871608006620A00A56
:1000700000302007F63EA300A30803194020080023
:100080009220A10A00302107F63EA300A30803191D
:100090004A2008009520A20A0800A003003020078B
:1000A000013EA300A3080319572086200800093049
:1000B000A000A10300302107013EA300A3080319FB
:1000C000622008000930A100A20308000030A70048
:1000D00000302007F73EA300A308031927140030BF
:1000E0002107F73EA300A3080319A7140030220735
:1000F000F73EA300A3080319271500302707F93E90
:10010000A300A30800300319A00308000030220751
:10011000013EA300A3080319362008009220952071
:10012000982008000030A00008000030A10008005E
:100130000030A2000800A500030EA60083120313DE
:100140000608A400831203130B10A41A3620241BE4
:100150004D20A41B8E20260E8300A50E250E09001F
:02400E00723FFF
:00000001FF
