:020000040000FA
:020000000620D8
:040002000034003492
:080008009C2009000030A0005B
:100010000030A1000030A2000030A70083160313B7
:10002000E030860083160313003087008312031329
:100030008B178B1501131F2027202F201B288312BD
:1000400003130713871220088700871708008312FD
:1000500003138713871221088700071708008312EC
:1000600003138713071322088700871608006F20E1
:10007000A00A00302007F63EA300A3080319412080
:1000800008000030A000A10A00302107F63EA300BE
:10009000A30803194C2008000030A100A20A0800A0
:1000A000A00300302007013EA300A308031960202D
:1000B00000302207013EA300A308031937200800DF
:1000C0000930A000A10300302107013EA300A308CE
:1000D00003196B2008000930A100A20308000030BA
:1000E000A70000302007F73EA300A3080319271438
:1000F00000302107F73EA300A3080319A71400301E
:100100002207F73EA300A30803192715003027078D
:10011000F93EA300A30800300319A00308009320B0
:100120009620992008000030A00008000030A100AF
:1001300008000030A2000800A500030EA6008312EC
:1001400003130608A400831203130B10A41A37200C
:10015000241B5020A41B8F20260E8300A50E250EE5
:02016000080095
:02400E00393F38
:00000001FF
